{
  "_format": "hh-sol-artifact-1",
  "contractName": "BalancerFlashLoan",
  "sourceName": "contracts/balancer/BalancerFlashloan.sol",
  "abi": [
    {
      "inputs": [
        {
          "internalType": "address",
          "name": "_vault",
          "type": "address"
        }
      ],
      "stateMutability": "nonpayable",
      "type": "constructor"
    },
    {
      "inputs": [
        {
          "internalType": "contract IERC20[]",
          "name": "tokens",
          "type": "address[]"
        },
        {
          "internalType": "uint256[]",
          "name": "amounts",
          "type": "uint256[]"
        },
        {
          "internalType": "bytes",
          "name": "userData",
          "type": "bytes"
        }
      ],
      "name": "flashLoan",
      "outputs": [],
      "stateMutability": "nonpayable",
      "type": "function"
    },
    {
      "inputs": [
        {
          "internalType": "contract IERC20[]",
          "name": "tokens",
          "type": "address[]"
        },
        {
          "internalType": "uint256[]",
          "name": "amounts",
          "type": "uint256[]"
        },
        {
          "internalType": "uint256[]",
          "name": "feeAmounts",
          "type": "uint256[]"
        },
        {
          "internalType": "bytes",
          "name": "",
          "type": "bytes"
        }
      ],
      "name": "receiveFlashLoan",
      "outputs": [],
      "stateMutability": "nonpayable",
      "type": "function"
    },
    {
      "inputs": [],
      "name": "vault",
      "outputs": [
        {
          "internalType": "address",
          "name": "",
          "type": "address"
        }
      ],
      "stateMutability": "view",
      "type": "function"
    }
  ],
  "bytecode": "0x60a060405234801561001057600080fd5b50604051610a48380380610a4883398101604081905261002f91610055565b60601b6001600160601b0319166080526100a3565b805161004f8161008c565b92915050565b60006020828403121561006757600080fd5b60006100738484610044565b949350505050565b60006001600160a01b03821661004f565b6100958161007b565b81146100a057600080fd5b50565b60805160601c61097b6100cd6000396000818160730152818160c2015261024b015261097b6000f3fe608060405234801561001057600080fd5b50600436106100415760003560e01c8063788fb48414610046578063f04f27071461005b578063fbfa77cf1461006e575b600080fd5b6100596100543660046105a5565b6100ab565b005b6100596100693660046104e5565b610134565b6100957f000000000000000000000000000000000000000000000000000000000000000081565b6040516100a2919061074e565b60405180910390f35b604051632e1c224f60e11b81526001600160a01b037f00000000000000000000000000000000000000000000000000000000000000001690635c38449e906100fd90309087908790879060040161077e565b600060405180830381600087803b15801561011757600080fd5b505af115801561012b573d6000803e3d6000fd5b50505050505050565b60005b84518110156102dc57600085828151811061016257634e487b7160e01b600052603260045260246000fd5b60200260200101519050600085838151811061018e57634e487b7160e01b600052603260045260246000fd5b602002602001015190506101ca6040518060400160405280601081526020016f3137b93937bbb2b21030b6b7bab73a1d60811b815250826102e3565b60008584815181106101ec57634e487b7160e01b600052603260045260246000fd5b602002602001015190506102276040518060400160405280600f81526020016e0333630b9b43637b0b7103332b29d1608d1b815250826102e3565b60405163a9059cbb60e01b81526001600160a01b0384169063a9059cbb90610275907f000000000000000000000000000000000000000000000000000000000000000090869060040161075c565b602060405180830381600087803b15801561028f57600080fd5b505af11580156102a3573d6000803e3d6000fd5b505050506040513d601f19601f820116820180604052508101906102c79190610639565b50505050806102d5906108e0565b9050610137565b5050505050565b61032882826040516024016102f99291906107d0565b60408051601f198184030181529190526020810180516001600160e01b0316632d839cb360e21b17905261032c565b5050565b61033581610338565b50565b60006a636f6e736f6c652e6c6f679050600080835160208501845afa505050565b600061036c6103678461080c565b6107f0565b9050808382526020820190508285602086028201111561038b57600080fd5b60005b858110156103b757816103a188826104cf565b845250602092830192919091019060010161038e565b5050509392505050565b60006103cf6103678461080c565b905080838252602082019050828560208602820111156103ee57600080fd5b60005b858110156103b7578161040488826104da565b84525060209283019291909101906001016103f1565b600061042861036784610830565b90508281526020810184848401111561044057600080fd5b61044b848285610877565b509392505050565b600082601f83011261046457600080fd5b8135610474848260208601610359565b949350505050565b600082601f83011261048d57600080fd5b81356104748482602086016103c1565b80516104a881610927565b92915050565b600082601f8301126104bf57600080fd5b813561047484826020860161041a565b80356104a881610936565b80356104a88161093f565b600080600080608085870312156104fb57600080fd5b843567ffffffffffffffff81111561051257600080fd5b61051e87828801610453565b945050602085013567ffffffffffffffff81111561053b57600080fd5b6105478782880161047c565b935050604085013567ffffffffffffffff81111561056457600080fd5b6105708782880161047c565b925050606085013567ffffffffffffffff81111561058d57600080fd5b610599878288016104ae565b91505092959194509250565b6000806000606084860312156105ba57600080fd5b833567ffffffffffffffff8111156105d157600080fd5b6105dd86828701610453565b935050602084013567ffffffffffffffff8111156105fa57600080fd5b6106068682870161047c565b925050604084013567ffffffffffffffff81111561062357600080fd5b61062f868287016104ae565b9150509250925092565b60006020828403121561064b57600080fd5b6000610474848461049d565b6000610663838361073f565b505060200190565b60006106638383610748565b6106808161085b565b82525050565b6000610690825190565b80845260209384019383018060005b838110156106c45781516106b38882610657565b97506020830192505060010161069f565b509495945050505050565b60006106d9825190565b80845260209384019383018060005b838110156106c45781516106fc888261066b565b9750602083019250506001016106e8565b6000610717825190565b80845260208401935061072e818560208601610883565b601f01601f19169290920192915050565b6106808161086c565b80610680565b602081016104a88284610677565b6040810161076a8285610677565b6107776020830184610748565b9392505050565b6080810161078c828761073f565b818103602083015261079e8186610686565b905081810360408301526107b281856106cf565b905081810360608301526107c6818461070d565b9695505050505050565b604080825281016107e1818561070d565b90506107776020830184610748565b60006107fb60405190565b905061080782826108b3565b919050565b600067ffffffffffffffff82111561082657610826610911565b5060209081020190565b600067ffffffffffffffff82111561084a5761084a610911565b601f19601f83011660200192915050565b60006001600160a01b0382166104a8565b60006104a88261085b565b82818337506000910152565b60005b8381101561089e578181015183820152602001610886565b838111156108ad576000848401525b50505050565b601f19601f830116810181811067ffffffffffffffff821117156108d9576108d9610911565b6040525050565b60006000198214156108f4576108f46108fb565b5060010190565b634e487b7160e01b600052601160045260246000fd5b634e487b7160e01b600052604160045260246000fd5b8015155b811461033557600080fd5b61092b8161086c565b8061092b56fea2646970667358221220a850dd7fb8287c1c0e5c6abcff733e544e7e1cb5f089b06c8b9ce0ef36b2cff864736f6c63430008040033",
  "linkReferences": {},
  "deployedLinkReferences": {}
}