{
  "_format": "hh-sol-artifact-1",
  "contractName": "UniswapFork",
  "sourceName": "contracts/uniswap/UniswapFork.sol",
  "abi": [
    {
      "inputs": [
        {
          "internalType": "contract IUniswapV2Router02",
          "name": "router",
          "type": "address"
        },
        {
          "internalType": "contract IERC20",
          "name": "fromToken",
          "type": "address"
        },
        {
          "internalType": "uint256",
          "name": "amountIn",
          "type": "uint256"
        },
        {
          "internalType": "uint256",
          "name": "amountOutMin",
          "type": "uint256"
        },
        {
          "internalType": "address[]",
          "name": "path",
          "type": "address[]"
        },
        {
          "internalType": "address",
          "name": "to",
          "type": "address"
        }
      ],
      "name": "uniswapFork",
      "outputs": [],
      "stateMutability": "nonpayable",
      "type": "function"
    }
  ],
  "bytecode": "0x608060405234801561001057600080fd5b50610606806100206000396000f3fe608060405234801561001057600080fd5b506004361061002b5760003560e01c8063759a2ca714610030575b600080fd5b61004361003e366004610322565b610045565b005b60405163095ea7b360e01b81526001600160a01b0386169063095ea7b3906100739089908890600401610433565b602060405180830381600087803b15801561008d57600080fd5b505af11580156100a1573d6000803e3d6000fd5b505050506040513d601f19601f820116820180604052508101906100c59190610304565b6100ea5760405162461bcd60e51b81526004016100e190610455565b60405180910390fd5b6001600160a01b0386166338ed1739858585856101084260c8610515565b6040518663ffffffff1660e01b8152600401610128959493929190610482565b600060405180830381600087803b15801561014257600080fd5b505af1158015610156573d6000803e3d6000fd5b505050506040513d6000823e601f3d908101601f1916820160405261017e91908101906102cf565b50505050505050565b600061019a610195846104f1565b6104d5565b905080838252602082019050828560208602820111156101b957600080fd5b60005b858110156101e557816101cf8882610248565b84525060209283019291909101906001016101bc565b5050509392505050565b60006101fd610195846104f1565b9050808382526020820190508285602086028201111561021c57600080fd5b60005b858110156101e5578161023288826102c4565b845250602092830192919091019060010161021f565b8035610253816105a2565b92915050565b600082601f83011261026a57600080fd5b813561027a848260208601610187565b949350505050565b600082601f83011261029357600080fd5b815161027a8482602086016101ef565b8051610253816105b9565b8035610253816105c1565b8035610253816105ca565b8051610253816105ca565b6000602082840312156102e157600080fd5b815167ffffffffffffffff8111156102f857600080fd5b61027a84828501610282565b60006020828403121561031657600080fd5b600061027a84846102a3565b60008060008060008060c0878903121561033b57600080fd5b600061034789896102ae565b965050602061035889828a016102ae565b955050604061036989828a016102b9565b945050606061037a89828a016102b9565b935050608087013567ffffffffffffffff81111561039757600080fd5b6103a389828a01610259565b92505060a06103b489828a01610248565b9150509295509295509295565b60006103cd83836103d5565b505060200190565b6103de8161052d565b82525050565b60006103ee825190565b80845260209384019383018060005b8381101561042257815161041188826103c1565b9750602083019250506001016103fd565b509495945050505050565b806103de565b6040810161044182856103d5565b61044e602083018461042d565b9392505050565b6020808252810161025381600f81526e30b8383937bb32903330b4b632b21760891b602082015260400190565b60a08101610490828861042d565b61049d602083018761042d565b81810360408301526104af81866103e4565b90506104be60608301856103d5565b6104cb608083018461042d565b9695505050505050565b60006104e060405190565b90506104ec8282610549565b919050565b600067ffffffffffffffff82111561050b5761050b61058c565b5060209081020190565b6000821982111561052857610528610576565b500190565b60006001600160a01b038216610253565b60006102538261052d565b601f19601f830116810181811067ffffffffffffffff8211171561056f5761056f61058c565b6040525050565b634e487b7160e01b600052601160045260246000fd5b634e487b7160e01b600052604160045260246000fd5b6105ab8161052d565b81146105b657600080fd5b50565b8015156105ab565b6105ab8161053e565b806105ab56fea26469706673582212203309dbb66e46aaf3d7b7c649fa99761e38d1fe37f700d9cc2068844505954c2764736f6c63430008040033",
  "linkReferences": {},
  "deployedLinkReferences": {}
}