{
  "_format": "hh-sol-artifact-1",
  "contractName": "AaveFlashloan",
  "sourceName": "contracts/aave/AaveFlashloan.sol",
  "abi": [
    {
      "inputs": [
        {
          "internalType": "contract IPoolAddressesProvider",
          "name": "provider",
          "type": "address"
        }
      ],
      "stateMutability": "nonpayable",
      "type": "constructor"
    },
    {
      "inputs": [],
      "name": "ADDRESSES_PROVIDER",
      "outputs": [
        {
          "internalType": "contract IPoolAddressesProvider",
          "name": "",
          "type": "address"
        }
      ],
      "stateMutability": "view",
      "type": "function"
    },
    {
      "inputs": [],
      "name": "POOL",
      "outputs": [
        {
          "internalType": "contract IPool",
          "name": "",
          "type": "address"
        }
      ],
      "stateMutability": "view",
      "type": "function"
    },
    {
      "inputs": [
        {
          "internalType": "address",
          "name": "loanToken",
          "type": "address"
        },
        {
          "internalType": "uint256",
          "name": "loanAmount",
          "type": "uint256"
        }
      ],
      "name": "aaveFlashloan",
      "outputs": [],
      "stateMutability": "nonpayable",
      "type": "function"
    },
    {
      "inputs": [
        {
          "internalType": "address",
          "name": "asset",
          "type": "address"
        },
        {
          "internalType": "uint256",
          "name": "amount",
          "type": "uint256"
        },
        {
          "internalType": "uint256",
          "name": "premium",
          "type": "uint256"
        },
        {
          "internalType": "address",
          "name": "",
          "type": "address"
        },
        {
          "internalType": "bytes",
          "name": "",
          "type": "bytes"
        }
      ],
      "name": "executeOperation",
      "outputs": [
        {
          "internalType": "bool",
          "name": "",
          "type": "bool"
        }
      ],
      "stateMutability": "nonpayable",
      "type": "function"
    }
  ],
  "bytecode": "0x60c060405234801561001057600080fd5b5060405162000b2c38038062000b2c8339810160408190526100319161011a565b80806001600160a01b03166080816001600160a01b031660601b81525050806001600160a01b031663026b1d5f6040518163ffffffff1660e01b815260040160206040518083038186803b15801561008857600080fd5b505afa15801561009c573d6000803e3d6000fd5b505050506040513d601f19601f820116820180604052508101906100c091906100f4565b60601b6001600160601b03191660a052506101749050565b80516100e381610154565b92915050565b80516100e38161016b565b60006020828403121561010657600080fd5b600061011284846100d8565b949350505050565b60006020828403121561012c57600080fd5b600061011284846100e9565b60006001600160a01b0382166100e3565b60006100e382610138565b61015d81610138565b811461016857600080fd5b50565b61015d81610149565b60805160601c60a05160601c610980620001ac6000396000818160b3015281816102a301526102ee01526000605601526109806000f3fe608060405234801561001057600080fd5b506004361061004c5760003560e01c80630542975c146100515780631b11d0ff1461008e5780637535d246146100ae578063ff7957ca146100d5575b600080fd5b6100787f000000000000000000000000000000000000000000000000000000000000000081565b60405161008591906107ae565b60405180910390f35b6100a161009c366004610559565b6100ea565b60405161008591906107a0565b6100787f000000000000000000000000000000000000000000000000000000000000000081565b6100e86100e336600461051f565b6102d7565b005b6040516370a0823160e01b81526000906001600160a01b038716906370a0823190610119903090600401610728565b60206040518083038186803b15801561013157600080fd5b505afa158015610145573d6000803e3d6000fd5b505050506040513d601f19601f820116820180604052508101906101699190610604565b8511156101915760405162461bcd60e51b8152600401610188906107fc565b60405180910390fd5b6101c36040518060400160405280601081526020016f3137b93937bbb2b21030b6b7bab73a1d60811b81525086610360565b60006101cf86866103a9565b905080876001600160a01b03166370a08231306040518263ffffffff1660e01b81526004016101fe9190610728565b60206040518083038186803b15801561021657600080fd5b505afa15801561022a573d6000803e3d6000fd5b505050506040513d601f19601f8201168201806040525081019061024e9190610604565b101561026c5760405162461bcd60e51b8152600401610188906107ec565b61029d6040518060400160405280600f81526020016e0333630b9b43637b0b7103332b29d1608d1b81525086610360565b6102c8877f0000000000000000000000000000000000000000000000000000000000000000836103be565b60019150505b95945050505050565b6040516310ac2ddf60e21b81526001600160a01b037f000000000000000000000000000000000000000000000000000000000000000016906342b0b77c9061032a90309086908690600090600401610736565b600060405180830381600087803b15801561034457600080fd5b505af1158015610358573d6000803e3d6000fd5b505050505050565b6103a582826040516024016103769291906107bc565b60408051601f198184030181529190526020810180516001600160e01b0316632d839cb360e21b17905261045f565b5050565b60006103b58284610853565b90505b92915050565b60405163095ea7b360e01b81526001600160a01b0384169063095ea7b3906103ec908590859060040161077e565b602060405180830381600087803b15801561040657600080fd5b505af115801561041a573d6000803e3d6000fd5b505050506040513d601f19601f8201168201806040525081019061043e91906105e6565b61045a5760405162461bcd60e51b8152600401610188906107dc565b505050565b6104688161046b565b50565b60006a636f6e736f6c652e6c6f679050600080835160208501845afa505050565b600061049f61049a84610828565b61080c565b9050828152602081018484840111156104b757600080fd5b6104c2848285610893565b509392505050565b80356103b881610928565b80516103b88161093c565b600082601f8301126104f157600080fd5b813561050184826020860161048c565b949350505050565b80356103b881610944565b80516103b881610944565b6000806040838503121561053257600080fd5b600061053e85856104ca565b925050602061054f85828601610509565b9150509250929050565b600080600080600060a0868803121561057157600080fd5b600061057d88886104ca565b955050602061058e88828901610509565b945050604061059f88828901610509565b93505060606105b0888289016104ca565b925050608086013567ffffffffffffffff8111156105cd57600080fd5b6105d9888289016104e0565b9150509295509295909350565b6000602082840312156105f857600080fd5b600061050184846104d5565b60006020828403121561061657600080fd5b60006105018484610514565b61062b8161086b565b82525050565b80151561062b565b61062b8161087c565b61062b81610887565b6000610655825190565b80845260208401935061066c81856020860161089f565b601f01601f19169290920192915050565b6002815260006020820161060f60f31b815291505b5060200190565b600e81526000602082016d185c1c1c9bdd994819985a5b195960921b81529150610692565b60208082527f4e6f7420656e6f75676820616d6f756e7420746f2072657475726e206c6f616e91019081526000610692565b60208082527f496e76616c69642062616c616e636520666f722074686520636f6e747261637491019081526000610692565b8061062b565b602081016103b88284610622565b60a081016107448287610622565b6107516020830186610622565b61075e6040830185610722565b818103606083015261076f8161067d565b90506102ce6080830184610642565b6040810161078c8285610622565b6107996020830184610722565b9392505050565b602081016103b88284610631565b602081016103b88284610639565b604080825281016107cd818561064b565b90506107996020830184610722565b602080825281016103b881610699565b602080825281016103b8816106be565b602080825281016103b8816106f0565b600061081760405190565b905061082382826108cf565b919050565b600067ffffffffffffffff82111561084257610842610912565b601f19601f83011660200192915050565b60008219821115610866576108666108fc565b500190565b60006001600160a01b0382166103b8565b60006103b88261086b565b600061ffff82166103b8565b82818337506000910152565b60005b838110156108ba5781810151838201526020016108a2565b838111156108c9576000848401525b50505050565b601f19601f830116810181811067ffffffffffffffff821117156108f5576108f5610912565b6040525050565b634e487b7160e01b600052601160045260246000fd5b634e487b7160e01b600052604160045260246000fd5b6109318161086b565b811461046857600080fd5b801515610931565b8061093156fea264697066735822122031f7aa2d79235ed28da83675d9519988df866924c875a87c5e2205c32d422da164736f6c63430008040033",
  "linkReferences": {},
  "deployedLinkReferences": {}
}