{
  "_format": "hh-sol-artifact-1",
  "contractName": "DodoBase",
  "sourceName": "contracts/base/DodoBase.sol",
  "abi": [
    {
      "inputs": [
        {
          "internalType": "address",
          "name": "sender",
          "type": "address"
        },
        {
          "internalType": "uint256",
          "name": "baseAmount",
          "type": "uint256"
        },
        {
          "internalType": "uint256",
          "name": "quoteAmount",
          "type": "uint256"
        },
        {
          "internalType": "bytes",
          "name": "data",
          "type": "bytes"
        }
      ],
      "name": "DPPFlashLoanCall",
      "outputs": [],
      "stateMutability": "nonpayable",
      "type": "function"
    },
    {
      "inputs": [
        {
          "internalType": "address",
          "name": "sender",
          "type": "address"
        },
        {
          "internalType": "uint256",
          "name": "baseAmount",
          "type": "uint256"
        },
        {
          "internalType": "uint256",
          "name": "quoteAmount",
          "type": "uint256"
        },
        {
          "internalType": "bytes",
          "name": "data",
          "type": "bytes"
        }
      ],
      "name": "DSPFlashLoanCall",
      "outputs": [],
      "stateMutability": "nonpayable",
      "type": "function"
    },
    {
      "inputs": [
        {
          "internalType": "address",
          "name": "sender",
          "type": "address"
        },
        {
          "internalType": "uint256",
          "name": "baseAmount",
          "type": "uint256"
        },
        {
          "internalType": "uint256",
          "name": "quoteAmount",
          "type": "uint256"
        },
        {
          "internalType": "bytes",
          "name": "data",
          "type": "bytes"
        }
      ],
      "name": "DVMFlashLoanCall",
      "outputs": [],
      "stateMutability": "nonpayable",
      "type": "function"
    }
  ],
  "bytecode": "0x608060405234801561001057600080fd5b506101a4806100206000396000f3fe608060405234801561001057600080fd5b50600436106100415760003560e01c80637ed1f1dd14610046578063d5b9979714610046578063eb2021c314610046575b600080fd5b61005b6100543660046100c2565b5050505050565b005b803561006881610151565b92915050565b60008083601f84011261008057600080fd5b50813567ffffffffffffffff81111561009857600080fd5b6020830191508360018202830111156100b057600080fd5b9250929050565b803561006881610168565b6000806000806000608086880312156100da57600080fd5b60006100e6888861005d565b95505060206100f7888289016100b7565b9450506040610108888289016100b7565b935050606086013567ffffffffffffffff81111561012557600080fd5b6101318882890161006e565b92509250509295509295909350565b60006001600160a01b038216610068565b61015a81610140565b811461016557600080fd5b50565b8061015a56fea26469706673582212200b1140767b78c7cabea31b565ed33db23630b3a0efead88ce2d54495a62a9ab364736f6c63430008040033",
  "linkReferences": {},
  "deployedLinkReferences": {}
}