{
  "_format": "hh-sol-artifact-1",
  "contractName": "DODOProxyIntegrate",
  "sourceName": "contracts/dodo/DODOProxyIntegrate.sol",
  "abi": [
    {
      "inputs": [],
      "name": "useDodoSwapV1",
      "outputs": [],
      "stateMutability": "nonpayable",
      "type": "function"
    },
    {
      "inputs": [
        {
          "internalType": "address",
          "name": "fromToken",
          "type": "address"
        },
        {
          "internalType": "address",
          "name": "toToken",
          "type": "address"
        },
        {
          "internalType": "uint256",
          "name": "fromTokenAmount",
          "type": "uint256"
        },
        {
          "internalType": "address",
          "name": "dodoV2Pool",
          "type": "address"
        }
      ],
      "name": "useDodoSwapV2",
      "outputs": [],
      "stateMutability": "nonpayable",
      "type": "function"
    }
  ],
  "bytecode": "0x608060405234801561001057600080fd5b50610ffe806100206000396000f3fe608060405234801561001057600080fd5b50600436106100365760003560e01c806325765d921461003b5780636a7b076814610045575b600080fd5b610043610058565b005b610043610053366004610a6f565b61033b565b6040516323b872dd60e01b815273be60d4c4250438344bec816ec2dec99925deb4c7907355d398326f99059ff775485246999027b31979559073e9e7cea3dedca5984780bafc599bd69add087d5690670de0b6b3a764000090600190730f859706aee7fcf61d5a8939e8cb9dbb6c1eda339085906323b872dd906100e490339030908890600401610d32565b602060405180830381600087803b1580156100fe57600080fd5b505af1158015610112573d6000803e3d6000fd5b505050506040513d601f19601f820116820180604052508101906101369190610ad0565b5060405163ca19ebd960e01b81526000906001600160a01b0383169063ca19ebd990610168908a908890600401610e0e565b60206040518083038186803b15801561018057600080fd5b505afa158015610194573d6000803e3d6000fd5b505050506040513d601f19601f820116820180604052508101906101b89190610aee565b905060006101db60646101d56101ce8783610f1e565b85906105e4565b906105f9565b6040805160018082528183019092529192506000919060208083019080368337019050509050888160008151811061022357634e487b7160e01b600052603260045260246000fd5b6001600160a01b03909216602092830291909101909101526001600061024b42610258610ed3565b905073a128ba44b2738a558a1fdc06d6303d52d3cef8c161026d8b828b610605565b6000738f8dd7db1bda5ed3da8c9daf3bfa471c12d5848690506000816001600160a01b0316630dd4ebd98e8e8e8b8b8b60008c6040518963ffffffff1660e01b81526004016102c3989796959493929190610dd8565b602060405180830381600087803b1580156102dd57600080fd5b505af11580156102f1573d6000803e3d6000fd5b505050506040513d601f19601f820116820180604052508101906103159190610aee565b905061032b6001600160a01b038d1633836106c7565b5050505050505050505050505050565b604080518082018252601081526f1a5b9a5d1a585b0818dbdb9d1c9858dd60821b602082015290516370a0823160e01b81526001916103e8916001600160a01b038816906370a0823190610393903090600401610d09565b60206040518083038186803b1580156103ab57600080fd5b505afa1580156103bf573d6000803e3d6000fd5b505050506040513d601f19601f820116820180604052508101906103e39190610aee565b610722565b604051633cd0243b60e11b81526000906001600160a01b038416906379a04876906104199033908890600401610e0e565b604080518083038186803b15801561043057600080fd5b505afa158015610444573d6000803e3d6000fd5b505050506040513d601f19601f820116820180604052508101906104689190610b0c565b5090506104748161076b565b600061048860646101d56101ce8683610f1e565b90506104938161076b565b6040805160018082528183019092526000916020808301908036833701905050905084816000815181106104d757634e487b7160e01b600052603260045260246000fd5b6001600160a01b0390921660209283029190910190910152600160006104ff42610258610ed3565b9050736d310348d5c12009854dfcf72e0df9027e8cb4f46105218b828b610605565b600073a222e6a71d1a1dd5f279805fbe38d5329c1d0e7090506000816001600160a01b031663f87dc1b78e8e8e60018b8b60008c6040518963ffffffff1660e01b8152600401610578989796959493929190610d5a565b602060405180830381600087803b15801561059257600080fd5b505af11580156105a6573d6000803e3d6000fd5b505050506040513d601f19601f820116820180604052508101906105ca9190610aee565b90506105d58161076b565b50505050505050505050505050565b60006105f08284610eff565b90505b92915050565b60006105f08284610eeb565b604051636eb1769f60e11b81526000906001600160a01b0385169063dd62ed3e906106369030908790600401610d17565b60206040518083038186803b15801561064e57600080fd5b505afa158015610662573d6000803e3d6000fd5b505050506040513d601f19601f820116820180604052508101906106869190610aee565b9050818110156106c15780156106ab576106ab6001600160a01b0385168460006107b1565b6106c16001600160a01b038516846000196107b1565b50505050565b61071d8363a9059cbb60e01b84846040516024016106e6929190610e0e565b60408051601f198184030181529190526020810180516001600160e01b03166001600160e01b03199093169290921790915261087d565b505050565b6107678282604051602401610738929190610e3a565b60408051601f198184030181529190526020810180516001600160e01b0316632d839cb360e21b17905261090c565b5050565b6107ae8160405160240161077f9190610ec5565b60408051601f198184030181529190526020810180516001600160e01b031663f82c50f160e01b17905261090c565b50565b8015806108395750604051636eb1769f60e11b81526001600160a01b0384169063dd62ed3e906107e79030908690600401610d17565b60206040518083038186803b1580156107ff57600080fd5b505afa158015610813573d6000803e3d6000fd5b505050506040513d601f19601f820116820180604052508101906108379190610aee565b155b61085e5760405162461bcd60e51b815260040161085590610eb5565b60405180910390fd5b61071d8363095ea7b360e01b84846040516024016106e6929190610e0e565b60006108d2826040518060400160405280602081526020017f5361666545524332303a206c6f772d6c6576656c2063616c6c206661696c6564815250856001600160a01b03166109159092919063ffffffff16565b80519091501561071d57808060200190518101906108f09190610ad0565b61071d5760405162461bcd60e51b815260040161085590610ea5565b6107ae8161092e565b6060610924848460008561094f565b90505b9392505050565b60006a636f6e736f6c652e6c6f679050600080835160208501845afa505050565b6060824710156109715760405162461bcd60e51b815260040161085590610e5a565b843b61098f5760405162461bcd60e51b815260040161085590610e6a565b600080866001600160a01b031685876040516109ab9190610cfd565b60006040518083038185875af1925050503d80600081146109e8576040519150601f19603f3d011682016040523d82523d6000602084013e6109ed565b606091505b50915091506109fd828286610a0a565b925050505b949350505050565b60608315610a19575081610927565b825115610a295782518084602001fd5b8160405162461bcd60e51b81526004016108559190610e29565b80356105f381610fa6565b80516105f381610fba565b80356105f381610fc2565b80516105f381610fc2565b60008060008060808587031215610a8557600080fd5b6000610a918787610a43565b9450506020610aa287828801610a43565b9350506040610ab387828801610a59565b9250506060610ac487828801610a43565b91505092959194509250565b600060208284031215610ae257600080fd5b6000610a028484610a4e565b600060208284031215610b0057600080fd5b6000610a028484610a64565b60008060408385031215610b1f57600080fd5b6000610b2b8585610a64565b9250506020610b3c85828601610a64565b9150509250929050565b6000610b528383610b5a565b505060200190565b610b6381610f35565b82525050565b6000610b73825190565b80845260209384019383018060005b83811015610ba7578151610b968882610b46565b975060208301925050600101610b82565b509495945050505050565b801515610b63565b6000610bc4825190565b610bd2818560208601610f4e565b9290920192915050565b610b6381610f46565b6000610bef825190565b808452602084019350610c06818560208601610f4e565b601f01601f19169290920192915050565b602681526000602082017f416464726573733a20696e73756666696369656e742062616c616e636520666f8152651c8818d85b1b60d21b602082015291505b5060400190565b602a81526000602082017f5361666545524332303a204552433230206f7065726174696f6e20646964206e8152691bdd081cdd58d8d9595960b21b60208201529150610c56565b603681526000602082017f5361666545524332303a20617070726f76652066726f6d206e6f6e2d7a65726f81527520746f206e6f6e2d7a65726f20616c6c6f77616e636560501b60208201529150610c56565b80610b63565b60006109278284610bba565b602081016105f38284610b5a565b60408101610d258285610b5a565b6109276020830184610b5a565b60608101610d408286610b5a565b610d4d6020830185610b5a565b610a026040830184610cf7565b6101008101610d69828b610b5a565b610d76602083018a610b5a565b610d836040830189610cf7565b610d906060830188610bdc565b8181036080830152610da28187610b69565b9050610db160a0830186610cf7565b610dbe60c0830185610bb2565b610dcb60e0830184610cf7565b9998505050505050505050565b6101008101610de7828b610b5a565b610df4602083018a610b5a565b610e016040830189610cf7565b610d906060830188610cf7565b60408101610e1c8285610b5a565b6109276020830184610cf7565b602080825281016105f08184610be5565b60408082528101610e4b8185610be5565b90506109276020830184610cf7565b602080825281016105f381610c17565b602080825281016105f381601d81527f416464726573733a2063616c6c20746f206e6f6e2d636f6e7472616374000000602082015260400190565b602080825281016105f381610c5d565b602080825281016105f381610ca4565b602081016105f38284610cf7565b60008219821115610ee657610ee6610f7a565b500190565b600082610efa57610efa610f90565b500490565b6000816000190483118215151615610f1957610f19610f7a565b500290565b600082821015610f3057610f30610f7a565b500390565b60006001600160a01b0382166105f3565b6000816105f3565b60005b83811015610f69578181015183820152602001610f51565b838111156106c15750506000910152565b634e487b7160e01b600052601160045260246000fd5b634e487b7160e01b600052601260045260246000fd5b610faf81610f35565b81146107ae57600080fd5b801515610faf565b80610faf56fea264697066735822122072f5ef94ee2b367943a95bce9b000f23a4ce179d01962052be9f8228dc80f52464736f6c63430008040033",
  "linkReferences": {},
  "deployedLinkReferences": {}
}